:020000040000FA
:08000000803102288731FC2F3A
:100E680087315C27873123001114080087315C27FC
:100E780087312300111508002F009601970198016A
:100E880099019A019B010800603031008D008F01A3
:100E9800910102309300920108002830230090004D
:100EA80091018F170F1706308D00FF308E00080054
:100EB80023000F19602F612F5C2F11081F39031DA4
:100EC800662F672F5C2F08008731402787318731CD
:100ED800CD27873187314827873187315127873197
:100EE8000800F00087315C278731700823008C00E8
:100EF8002E000F1C802F812F7C2F0F100800F1006F
:100F080087315C2787312300911587315C2787312A
:100F180023000C08F0007008F20087315C27873145
:100F280071080319982F9B2F230091169D2F2300DA
:100F380091121116720808008731682787318731A6
:100F4800342787317430873175278731DB30873113
:100F58007527873187313A27873187313427873199
:100F6800753087317527873100308731832787317E
:100F7800F3007308F40087313A278731DB307406B1
:100F8800031DC72FC82FCA2F20008C14CA2F8031E9
:100F9800022820009601970198019101FF309200E4
:100FA800FF309300E7303E00CE00FF30C300B801A9
:100FB800E501C401B901CF01BA01C501D001FF3073
:100FC800BB00FF30C600FF30D100BC01FF30C700B6
:100FD800FF30D2000830E80013303D00C50014305F
:100FE8003E00A3001530A40014303D00C6000800E0
:080FF800F40120008731A02F55
:00000001FF
