:020000040000FA
:08000000803102288731FA2F3C
:100E220087313F27873123009114080087313F27FC
:100E3200873123001114080087313F2787312300AF
:100E4200111508002F0096019701980199019A0146
:100E52009B010800603031008D008F01910102304A
:100E620093009201080028302300900091018F170F
:100E72000F1706308D00FF308E00080023000F1977
:100E8200432F442F3F2F11081F39031D492F4A2F8B
:100E92003F2F080087312327873187318327873106
:100EA20087312B2787318731342787310800F000BB
:100EB20087313F278731700823008C002E000F1CDA
:100EC200632F642F5F2F0F100800F10087313F2737
:100ED20087312300911587313F27873123000C0882
:100EE200F0007008F20087313F278731710803193B
:100EF2007B2F7E2F23009116802F23009112111633
:100F02007208080020009601970198019101FF30B4
:100F12009200FF309300E7303E00CE00FF30C30066
:100F2200B801E501C401B901CF01BA01C501D0017F
:100F3200FF30BB00FF30C600FF30D100BC01FF30E4
:100F4200C700FF30D2000830E80013303D00C50072
:100F520014303E00A3001530A40014303D00C6003A
:100F6200080087314B278731873117278731E030D7
:100F720087315827873101308731582787318731A8
:100F82001D278731873117278731E030873158276E
:100F92008731873111278731D03087315827873100
:100FA200803087315827873187311D278731873134
:100FB20017278731E030873158278731873111274A
:100FC2008731D13087315827873101308731662701
:100FD2008731F3007308F6000030873166278731C6
:100FE200F3007308F50087311D278731F72F803111
:0E0FF2000228F401F501F60120008731B22F2C
:00000001FF
